:020000040800F2
:1000000010040020A90B0008850B0008870B0008CE
:10001000890B00088B0B00088D0B00080000000006
:100020000000000000000000000000008F0B00082E
:10003000910B000800000000930B0008950B0008CE
:10004000D50B0008D90B0008DD0B0008E10B0008F8
:10005000E50B0008E90B0008ED0B0008F10B0008A8
:10006000F50B0008F90B0008FD0B0008010C000857
:10007000050C0008090C00080D0C0008110C000804
:10008000150C0008190C00081D0C000800000000E9
:10009000000000000000000000000000210C00082B
:1000A000250C0008290C00082D0C0008310C000854
:1000B000350C0008390C00083D0C0008410C000804
:1000C000450C0008490C00084D0C0008510C0008B4
:1000D000550C0008590C00085D0C0008610C000864
:1000E000650C0008690C00086D0C00080000000099
:1000F0000000000000000000000000000000000000
:1001000000000000000000000000000000000000EF
:100110000000000000000000710C0008750C0008D1
:100120002DE9F843040016D02078DFF82064C107D9
:1001300013D5706800F00C00042807D0706800F038
:100140000C00082840D17068C1033DD53068810398
:1001500003D56068002800F0F4802078DFF8FC7395
:10016000810719D5706810F00C0F07D0706800F087
:100170000C00082860D17068C1035DD43068810725
:1001800003D52069012840F0DC803168606921F0E6
:10019000F80141EAC00131602178080770D5A069F3
:1001A000DFF8BC13002865D001220A6000F0F2F9E4
:1001B0000546706A810700F1C68000F0EBF9401B2C
:1001C0000228F6D9032035E16068B0F5803F04D1FC
:1001D000306840F48030306014E008B930680AE0DC
:1001E000B0F5A02F306806D140F48020306031682F
:1001F00041F4803105E020F480303060316821F432
:1002000080213160606858B100F0C4F9054630685B
:100210008103A2D400F0BEF9401B6528F7D3D1E7D3
:1002200000F0B8F905463068810396D500F0B2F9C0
:10023000401B6528F7D3C5E7206970B101213960FB
:1002400000F0A8F905463068810700F1B68000F09B
:10025000A1F9401B0228F6D9B4E7386000F09AF9FA
:1002600005463168880797D500F094F9401B0228AD
:10027000F7D9A7E7086000F08DF90546706A810795
:1002800070D500F087F9401B0228F7D99AE708B922
:10029000306A09E00528306A06D140F00400306277
:1002A000306A40F0010005E0400840003062306AEA
:1002B00020F00400306241F28938E06868B100F053
:1002C00069F98146306A810700F1848000F062F9A3
:1002D000A0EB09004045F5D374E700F05BF98146D7
:1002E000306A810776D500F055F9A0EB090040454A
:1002F000F6D367E700F04EF9401B02287BD961E78F
:1003000000F048F9001B022840F28F805AE700F005
:1003100093F804463068810140F18B8000F03AF98F
:10032000001B0228F6D94DE701280AD07068226A1E
:1003300000F48031914202BF00F47010616A88427B
:1003400077D0012076E0DFF808020168C9084FF491
:100350007A72B1FBF2F2009200BF0098411E0028B1
:100360000091F9D12078410739D5F0690025C10005
:1003700009D4F06940F08050F0610125F06900F087
:10038000805000900098DFF8DC81D8F80000C105AB
:100390001BD4D8F8000040F48070C8F8000000F0CA
:1003A000F9F88146D8F80000C1050ED400F0F2F843
:1003B000A0EB09006528F5D304E73068616920F0F7
:1003C000F80040EAC1003060E6E6E06801287FF40A
:1003D0005EAF65E71DB1F06920F08050F061E06923
:1003E00038B3716801F00C0108299DD002288ED124
:1003F00000F022F80546306881013FF57BAF206AA6
:10040000B0F5803F05D1F16AA068090940EA011101
:10041000F1627268206A616A22F4741202430A432C
:100420007260012000F009F80446306881017FF510
:1004300067AF0020BDE8F2830020386600F0AAB85C
:1004400070B504003FD02068404D810712D54007A9
:1004500003D5696841F4E06169602078010703D53C
:10046000686840F4605068606968A06821F0F00135
:10047000014369602178C80727D5606801281AD12F
:1004800029688A031FD56968890840EA8100686085
:1004900000F080F806466868616800F00C00B0EB78
:1004A000810F12D000F076F8801B41F2893188422A
:1004B000F1D3032070BD0228296802D18A01E2D459
:1004C00001E08A07DFD4012070BD2078410705D5FF
:1004D0006A68E06822F4E06202436A6021780807F3
:1004E00006D56968206921F4605141EAC00169605C
:1004F00000F00EF86A681C49154BC2F30312895CC0
:10050000C84018601448006800F04AF8002070BD28
:10051000164910480A6802F00C03082B00D07047F7
:1005200010B500BF13A4C2F38343D203E35C09D523
:10053000896A00BF13A201F00F015843535CB0FB5E
:10054000F3F010BD18460A49484310BD00100240A0
:100550000C00002000127A00080000200000424237
:100560008004424200700040C40A000804100240A7
:1005700000093D0002030405060708090A0B0C0DDB
:100580000E0F10100102030405060708090A0B0CE0
:100590000D0E0F1001484068704700BF000000209A
:1005A00038B50D4D0D4B2A7804464FF47A71186812
:1005B000B1FBF2F2B0FBF2F000F049F850B9102CA8
:1005C00008D2002221464FF0FF3000F023F8AC6043
:1005D000002032BD012032BD000000200C000020B0
:1005E0000901020002D4244881547047234B02F0D1
:1005F0000F021A4402F8041C7047214B19684FF689
:10060000FF020002114000F4E06008431D49084366
:100610001860704738B51A4B1C68C4F30223C3F145
:100620000704052C28BF04241D1D072D34BF0023FB
:10063000DB1E012505FA04F4641E2140994005FAE9
:1006400003F35B1E1A401143BDE83440C8E710B500
:10065000401EB0F1807F01D3012010BD0A4C6060C4
:100660000F214FF0FF30FFF7BBFF0021A1600720F3
:100670002060002010BD000000E400E018ED00E064
:100680000CED00E00000FA0510E000E02DE9F8476D
:100690000027BE465F4A604B4FF00F0882460BE0D2
:1006A000D6683040D06006E094604C68A402F7D56C
:1006B000D0680643D6607F1C0E6836FA07F000F05B
:1006C000A380012000FA07F52E40AE42F3D148681E
:1006D00058B301281AD002281FD0032833D011287C
:1006E00017D012281DD04D4CA0421CBF4C4CA0422C
:1006F0001BD04C4CA0421CBF4B4CA04215D04B4CC5
:10070000A0421CBF4A4CA0420FD01EE0D1F80CE022
:100710001BE0C86800F1040E17E0C86800F1080E7D
:1007200013E0C86800F10C0E0FE0886810B94FF0B4
:10073000040E0AE001284FF0080E14BFCAF8145046
:10074000CAF8105001E04FF0000EB6F5807F03D2DA
:1007500050464FEA870C05E0A7F108040AF10400AF
:100760004FEA840C046808FA0CF5AC430EFA0CF559
:100770002C4304604868C0009DD51868DFF8B4C0F9
:1007800040F0010018601C6804F001040094BC00F3
:100790000098B8085CF8205004F00C0408FA04F93A
:1007A00025EA0909244DAA4508BF00250ED0234D8E
:1007B000AA4508BF012509D0214DAA4508BF022539
:1007C00004D0204DAA450CBF0325042505FA04F4E6
:1007D00044EA09044CF82040F0434C68E4031468F0
:1007E0004CBF3443044014604C68A40354684CBFAD
:1007F0003443044054604C689568E4024CBF46EAB8
:10080000050400EA05044FE7BDE8F18702B90904D1
:1008100001617047000401401810024000001110EF
:100820000000121000002110000022100000311002
:10083000000032100800014000080140000C014097
:10084000001001400014014030B585B000F0B2F84E
:1008500000F08FF801A8102100F0B8F83848394CA2
:10086000016841F02001016041F28835026802F020
:10087000200200920099026842F0100202600368B0
:1008800003F0100300930099026842F00402026032
:100890000022006800F0040000904FF4607100989E
:1008A00000F054F84FF4607101910122029200218E
:1008B00003910222049201A92046FFF7E7FE00F00F
:1008C00052F8284600F086F8002200F04DF800F0BB
:1008D00046F800F048F800F042F8002200F044F832
:1008E00000F03DF800F03FF800F039F8002200F089
:1008F0003BF800F034F800F036F800F030F8002251
:1009000000F032F800F02BF800F023F840F6B83091
:1009100000F060F8002200F01DF8012200F014F849
:10092000284600F057F800F014F84FF4FA6000F091
:1009300051F8002200F00EF8002200F005F8BEE7A2
:1009400018100240001001404FF480612046FFF76C
:100950005DBF01224FF400712046FFF757BF4FF4EF
:10096000FA7000F037B801224FF480712046FFF78B
:100970004DBF18B58FB005A8282100F027F86846AC
:10098000142100F023F801210991102200210224F2
:100990000A920C91059405A8FFF7C2FB0F20009066
:1009A000002101910291039104916846FFF748FDEF
:1009B00010B010BD80B50320FFF71FFE0020FFF729
:1009C000EFFD00F01BF8002002BD0000002200F047
:1009D00037B8000038B50446FFF7DCFD14F1010F0D
:1009E000054602D0044908780419FFF7D3FD401BDF
:1009F000A042FAD331BD00BF000000200E4881B0F4
:100A0000016841F001010160026802F001020092F8
:100A10000099426842F080524260406800F0805085
:100A2000009000980548016821F0E06141F00071F4
:100A3000016001B0704700BF18100240040001407F
:100A400000B500BF130096469446103928BFA0E8B1
:100A50000C50FAD85FEA417C28BF0CC048BF40F870
:100A6000042BC90728BF20F8022B48BF00F8012B30
:100A700000BD000010B50F4A0F49106840F001009A
:100A8000106053680D480B405360146804401460B4
:100A9000116821F4802111604FF41F01506820F487
:100AA000FE00506091600020D0624FF00061044A67
:100AB000116010BD001002400000FFF8FFFFF6FEBD
:100AC00008ED00E000000000000000000102030447
:100AD0000607080930B450F8041B79B1026843686E
:100AE00002440830DC0744BFA9F10104E31852F8BE
:100AF000045B43F8045B091FF9D1ECE730BC704795
:100B000010B5074979441831064C7C44163404E08A
:100B10000A68081D114488470146A142F8D110BD5A
:100B20000800000018000000ADFFFFFF10000000EB
:100B300088000000000000200000000000F00DF818
:100B4000002801D0FFF7DCFFAFF300800020AFF3F7
:100B50000080FFF779FE00F002F80120704700F0F6
:100B600001B800000746384600F002F8FBE7000035
:100B700080B5AFF30080024A11001820ABBEFBE73E
:100B8000260002007047FEE7FEE7FEE7FEE770473B
:100B90007047704700F000B802494A680878821828
:100BA0004A60704700000020014880470148004724
:100BB000750A0008C90B00080100000000000000D1
:100BC000100000000024F400AFF30080AFF30080B9
:100BD000FFF7B4FFFFF7FEBFFFF7FEBFFFF7FEBF53
:100BE000FFF7FEBFFFF7FEBFFFF7FEBFFFF7FEBF39
:100BF000FFF7FEBFFFF7FEBFFFF7FEBFFFF7FEBF29
:100C0000FFF7FEBFFFF7FEBFFFF7FEBFFFF7FEBF18
:100C1000FFF7FEBFFFF7FEBFFFF7FEBFFFF7FEBF08
:100C2000FFF7FEBFFFF7FEBFFFF7FEBFFFF7FEBFF8
:100C3000FFF7FEBFFFF7FEBFFFF7FEBFFFF7FEBFE8
:100C4000FFF7FEBFFFF7FEBFFFF7FEBFFFF7FEBFD8
:100C5000FFF7FEBFFFF7FEBFFFF7FEBFFFF7FEBFC8
:100C6000FFF7FEBFFFF7FEBFFFF7FEBFFFF7FEBFB8
:080C7000FFF7FEBFFFF7FEBF16
:0400000508000BC91B
:00000001FF
